{
  "contractName": "HealthDataMarketplace",
  "abi": [
    {
      "inputs": [],
      "stateMutability": "nonpayable",
      "type": "constructor"
    },
    {
      "anonymous": false,
      "inputs": [
        {
          "indexed": true,
          "internalType": "uint256",
          "name": "id",
          "type": "uint256"
        },
        {
          "indexed": true,
          "internalType": "address",
          "name": "user",
          "type": "address"
        },
        {
          "indexed": false,
          "internalType": "string",
          "name": "purpose",
          "type": "string"
        },
        {
          "indexed": false,
          "internalType": "uint256",
          "name": "expirationTime",
          "type": "uint256"
        }
      ],
      "name": "AccessGranted",
      "type": "event"
    },
    {
      "anonymous": false,
      "inputs": [
        {
          "indexed": true,
          "internalType": "uint256",
          "name": "id",
          "type": "uint256"
        },
        {
          "indexed": true,
          "internalType": "address",
          "name": "user",
          "type": "address"
        }
      ],
      "name": "AccessRevoked",
      "type": "event"
    },
    {
      "anonymous": false,
      "inputs": [
        {
          "indexed": true,
          "internalType": "uint256",
          "name": "id",
          "type": "uint256"
        },
        {
          "indexed": true,
          "internalType": "address",
          "name": "user",
          "type": "address"
        },
        {
          "indexed": false,
          "internalType": "string",
          "name": "action",
          "type": "string"
        }
      ],
      "name": "AuditEntryAdded",
      "type": "event"
    },
    {
      "anonymous": false,
      "inputs": [
        {
          "indexed": true,
          "internalType": "uint256",
          "name": "id",
          "type": "uint256"
        },
        {
          "indexed": true,
          "internalType": "address",
          "name": "user",
          "type": "address"
        },
        {
          "indexed": false,
          "internalType": "string",
          "name": "purpose",
          "type": "string"
        }
      ],
      "name": "ConsentGranted",
      "type": "event"
    },
    {
      "anonymous": false,
      "inputs": [
        {
          "indexed": true,
          "internalType": "uint256",
          "name": "id",
          "type": "uint256"
        },
        {
          "indexed": true,
          "internalType": "address",
          "name": "user",
          "type": "address"
        }
      ],
      "name": "ConsentRevoked",
      "type": "event"
    },
    {
      "anonymous": false,
      "inputs": [
        {
          "indexed": true,
          "internalType": "uint256",
          "name": "id",
          "type": "uint256"
        },
        {
          "indexed": true,
          "internalType": "address",
          "name": "owner",
          "type": "address"
        },
        {
          "indexed": false,
          "internalType": "string",
          "name": "category",
          "type": "string"
        }
      ],
      "name": "DataListed",
      "type": "event"
    },
    {
      "anonymous": false,
      "inputs": [
        {
          "indexed": true,
          "internalType": "uint256",
          "name": "id",
          "type": "uint256"
        },
        {
          "indexed": true,
          "internalType": "address",
          "name": "buyer",
          "type": "address"
        },
        {
          "indexed": true,
          "internalType": "address",
          "name": "seller",
          "type": "address"
        },
        {
          "indexed": false,
          "internalType": "uint256",
          "name": "price",
          "type": "uint256"
        }
      ],
      "name": "DataPurchased",
      "type": "event"
    },
    {
      "anonymous": false,
      "inputs": [
        {
          "indexed": true,
          "internalType": "uint256",
          "name": "id",
          "type": "uint256"
        },
        {
          "indexed": false,
          "internalType": "uint256",
          "name": "newPeriod",
          "type": "uint256"
        }
      ],
      "name": "DataRetentionUpdated",
      "type": "event"
    },
    {
      "anonymous": false,
      "inputs": [
        {
          "indexed": true,
          "internalType": "uint256",
          "name": "id",
          "type": "uint256"
        },
        {
          "indexed": false,
          "internalType": "bool",
          "name": "verified",
          "type": "bool"
        }
      ],
      "name": "DataVerified",
      "type": "event"
    },
    {
      "anonymous": false,
      "inputs": [
        {
          "indexed": true,
          "internalType": "uint256",
          "name": "id",
          "type": "uint256"
        },
        {
          "indexed": true,
          "internalType": "address",
          "name": "provider",
          "type": "address"
        },
        {
          "indexed": false,
          "internalType": "string",
          "name": "reason",
          "type": "string"
        }
      ],
      "name": "EmergencyAccessGranted",
      "type": "event"
    },
    {
      "anonymous": false,
      "inputs": [
        {
          "indexed": true,
          "internalType": "address",
          "name": "previousOwner",
          "type": "address"
        },
        {
          "indexed": true,
          "internalType": "address",
          "name": "newOwner",
          "type": "address"
        }
      ],
      "name": "OwnershipTransferred",
      "type": "event"
    },
    {
      "anonymous": false,
      "inputs": [
        {
          "indexed": false,
          "internalType": "address",
          "name": "account",
          "type": "address"
        }
      ],
      "name": "Paused",
      "type": "event"
    },
    {
      "anonymous": false,
      "inputs": [
        {
          "indexed": true,
          "internalType": "bytes32",
          "name": "role",
          "type": "bytes32"
        },
        {
          "indexed": true,
          "internalType": "bytes32",
          "name": "previousAdminRole",
          "type": "bytes32"
        },
        {
          "indexed": true,
          "internalType": "bytes32",
          "name": "newAdminRole",
          "type": "bytes32"
        }
      ],
      "name": "RoleAdminChanged",
      "type": "event"
    },
    {
      "anonymous": false,
      "inputs": [
        {
          "indexed": true,
          "internalType": "bytes32",
          "name": "role",
          "type": "bytes32"
        },
        {
          "indexed": true,
          "internalType": "address",
          "name": "account",
          "type": "address"
        },
        {
          "indexed": true,
          "internalType": "address",
          "name": "sender",
          "type": "address"
        }
      ],
      "name": "RoleGranted",
      "type": "event"
    },
    {
      "anonymous": false,
      "inputs": [
        {
          "indexed": true,
          "internalType": "bytes32",
          "name": "role",
          "type": "bytes32"
        },
        {
          "indexed": true,
          "internalType": "address",
          "name": "account",
          "type": "address"
        },
        {
          "indexed": true,
          "internalType": "address",
          "name": "sender",
          "type": "address"
        }
      ],
      "name": "RoleRevoked",
      "type": "event"
    },
    {
      "anonymous": false,
      "inputs": [
        {
          "indexed": false,
          "internalType": "address",
          "name": "account",
          "type": "address"
        }
      ],
      "name": "Unpaused",
      "type": "event"
    },
    {
      "anonymous": false,
      "inputs": [
        {
          "indexed": true,
          "internalType": "address",
          "name": "user",
          "type": "address"
        },
        {
          "indexed": false,
          "internalType": "string",
          "name": "role",
          "type": "string"
        }
      ],
      "name": "UserRegistered",
      "type": "event"
    },
    {
      "inputs": [],
      "name": "ADMIN_ROLE",
      "outputs": [
        {
          "internalType": "bytes32",
          "name": "",
          "type": "bytes32"
        }
      ],
      "stateMutability": "view",
      "type": "function"
    },
    {
      "inputs": [],
      "name": "DEFAULT_ADMIN_ROLE",
      "outputs": [
        {
          "internalType": "bytes32",
          "name": "",
          "type": "bytes32"
        }
      ],
      "stateMutability": "view",
      "type": "function"
    },
    {
      "inputs": [],
      "name": "MAX_ACCESS_DURATION",
      "outputs": [
        {
          "internalType": "uint256",
          "name": "",
          "type": "uint256"
        }
      ],
      "stateMutability": "view",
      "type": "function"
    },
    {
      "inputs": [],
      "name": "MAX_FEE",
      "outputs": [
        {
          "internalType": "uint256",
          "name": "",
          "type": "uint256"
        }
      ],
      "stateMutability": "view",
      "type": "function"
    },
    {
      "inputs": [],
      "name": "MIN_RETENTION_PERIOD",
      "outputs": [
        {
          "internalType": "uint256",
          "name": "",
          "type": "uint256"
        }
      ],
      "stateMutability": "view",
      "type": "function"
    },
    {
      "inputs": [],
      "name": "PROVIDER_ROLE",
      "outputs": [
        {
          "internalType": "bytes32",
          "name": "",
          "type": "bytes32"
        }
      ],
      "stateMutability": "view",
      "type": "function"
    },
    {
      "inputs": [],
      "name": "VERIFIER_ROLE",
      "outputs": [
        {
          "internalType": "bytes32",
          "name": "",
          "type": "bytes32"
        }
      ],
      "stateMutability": "view",
      "type": "function"
    },
    {
      "inputs": [
        {
          "internalType": "bytes32",
          "name": "role",
          "type": "bytes32"
        }
      ],
      "name": "getRoleAdmin",
      "outputs": [
        {
          "internalType": "bytes32",
          "name": "",
          "type": "bytes32"
        }
      ],
      "stateMutability": "view",
      "type": "function"
    },
    {
      "inputs": [
        {
          "internalType": "bytes32",
          "name": "role",
          "type": "bytes32"
        },
        {
          "internalType": "address",
          "name": "account",
          "type": "address"
        }
      ],
      "name": "grantRole",
      "outputs": [],
      "stateMutability": "nonpayable",
      "type": "function"
    },
    {
      "inputs": [
        {
          "internalType": "bytes32",
          "name": "role",
          "type": "bytes32"
        },
        {
          "internalType": "address",
          "name": "account",
          "type": "address"
        }
      ],
      "name": "hasRole",
      "outputs": [
        {
          "internalType": "bool",
          "name": "",
          "type": "bool"
        }
      ],
      "stateMutability": "view",
      "type": "function"
    },
    {
      "inputs": [
        {
          "internalType": "uint256",
          "name": "",
          "type": "uint256"
        }
      ],
      "name": "healthData",
      "outputs": [
        {
          "internalType": "address payable",
          "name": "owner",
          "type": "address"
        },
        {
          "internalType": "uint256",
          "name": "price",
          "type": "uint256"
        },
        {
          "internalType": "string",
          "name": "encryptedDataHash",
          "type": "string"
        },
        {
          "internalType": "bool",
          "name": "isAvailable",
          "type": "bool"
        },
        {
          "internalType": "bool",
          "name": "isVerified",
          "type": "bool"
        },
        {
          "internalType": "string",
          "name": "category",
          "type": "string"
        },
        {
          "internalType": "uint256",
          "name": "uploadTime",
          "type": "uint256"
        },
        {
          "internalType": "uint256",
          "name": "retentionPeriod",
          "type": "uint256"
        },
        {
          "internalType": "bool",
          "name": "consentRequired",
          "type": "bool"
        }
      ],
      "stateMutability": "view",
      "type": "function"
    },
    {
      "inputs": [],
      "name": "owner",
      "outputs": [
        {
          "internalType": "address",
          "name": "",
          "type": "address"
        }
      ],
      "stateMutability": "view",
      "type": "function"
    },
    {
      "inputs": [],
      "name": "paused",
      "outputs": [
        {
          "internalType": "bool",
          "name": "",
          "type": "bool"
        }
      ],
      "stateMutability": "view",
      "type": "function"
    },
    {
      "inputs": [],
      "name": "platformFee",
      "outputs": [
        {
          "internalType": "uint256",
          "name": "",
          "type": "uint256"
        }
      ],
      "stateMutability": "view",
      "type": "function"
    },
    {
      "inputs": [],
      "name": "renounceOwnership",
      "outputs": [],
      "stateMutability": "nonpayable",
      "type": "function"
    },
    {
      "inputs": [
        {
          "internalType": "bytes32",
          "name": "role",
          "type": "bytes32"
        },
        {
          "internalType": "address",
          "name": "account",
          "type": "address"
        }
      ],
      "name": "renounceRole",
      "outputs": [],
      "stateMutability": "nonpayable",
      "type": "function"
    },
    {
      "inputs": [
        {
          "internalType": "bytes32",
          "name": "role",
          "type": "bytes32"
        },
        {
          "internalType": "address",
          "name": "account",
          "type": "address"
        }
      ],
      "name": "revokeRole",
      "outputs": [],
      "stateMutability": "nonpayable",
      "type": "function"
    },
    {
      "inputs": [
        {
          "internalType": "bytes4",
          "name": "interfaceId",
          "type": "bytes4"
        }
      ],
      "name": "supportsInterface",
      "outputs": [
        {
          "internalType": "bool",
          "name": "",
          "type": "bool"
        }
      ],
      "stateMutability": "view",
      "type": "function"
    },
    {
      "inputs": [
        {
          "internalType": "address",
          "name": "newOwner",
          "type": "address"
        }
      ],
      "name": "transferOwnership",
      "outputs": [],
      "stateMutability": "nonpayable",
      "type": "function"
    },
    {
      "inputs": [
        {
          "internalType": "address",
          "name": "",
          "type": "address"
        }
      ],
      "name": "users",
      "outputs": [
        {
          "internalType": "bool",
          "name": "isRegistered",
          "type": "bool"
        },
        {
          "internalType": "string",
          "name": "role",
          "type": "string"
        },
        {
          "internalType": "string",
          "name": "encryptedDetails",
          "type": "string"
        },
        {
          "internalType": "uint256",
          "name": "dataCount",
          "type": "uint256"
        },
        {
          "internalType": "uint256",
          "name": "purchaseCount",
          "type": "uint256"
        },
        {
          "internalType": "bool",
          "name": "hipaaVerified",
          "type": "bool"
        }
      ],
      "stateMutability": "view",
      "type": "function"
    },
    {
      "inputs": [
        {
          "internalType": "string",
          "name": "_role",
          "type": "string"
        },
        {
          "internalType": "string",
          "name": "_encryptedDetails",
          "type": "string"
        }
      ],
      "name": "registerUser",
      "outputs": [],
      "stateMutability": "nonpayable",
      "type": "function"
    },
    {
      "inputs": [
        {
          "internalType": "string",
          "name": "_encryptedDataHash",
          "type": "string"
        },
        {
          "internalType": "uint256",
          "name": "_price",
          "type": "uint256"
        },
        {
          "internalType": "string",
          "name": "_category",
          "type": "string"
        },
        {
          "internalType": "uint256",
          "name": "_retentionPeriod",
          "type": "uint256"
        },
        {
          "internalType": "bool",
          "name": "_consentRequired",
          "type": "bool"
        }
      ],
      "name": "listHealthData",
      "outputs": [],
      "stateMutability": "nonpayable",
      "type": "function"
    },
    {
      "inputs": [
        {
          "internalType": "uint256",
          "name": "_id",
          "type": "uint256"
        },
        {
          "internalType": "string",
          "name": "_purpose",
          "type": "string"
        }
      ],
      "name": "purchaseData",
      "outputs": [],
      "stateMutability": "payable",
      "type": "function"
    },
    {
      "inputs": [
        {
          "internalType": "uint256",
          "name": "_id",
          "type": "uint256"
        },
        {
          "internalType": "string",
          "name": "_purpose",
          "type": "string"
        },
        {
          "internalType": "uint256",
          "name": "_duration",
          "type": "uint256"
        }
      ],
      "name": "grantConsent",
      "outputs": [],
      "stateMutability": "nonpayable",
      "type": "function"
    },
    {
      "inputs": [
        {
          "internalType": "uint256",
          "name": "_id",
          "type": "uint256"
        }
      ],
      "name": "revokeConsent",
      "outputs": [],
      "stateMutability": "nonpayable",
      "type": "function"
    },
    {
      "inputs": [
        {
          "internalType": "uint256",
          "name": "_id",
          "type": "uint256"
        },
        {
          "internalType": "string",
          "name": "_reason",
          "type": "string"
        }
      ],
      "name": "requestEmergencyAccess",
      "outputs": [],
      "stateMutability": "nonpayable",
      "type": "function"
    },
    {
      "inputs": [
        {
          "internalType": "uint256",
          "name": "_id",
          "type": "uint256"
        },
        {
          "internalType": "bool",
          "name": "_verified",
          "type": "bool"
        }
      ],
      "name": "verifyData",
      "outputs": [],
      "stateMutability": "nonpayable",
      "type": "function"
    },
    {
      "inputs": [
        {
          "internalType": "uint256",
          "name": "_newFee",
          "type": "uint256"
        }
      ],
      "name": "updatePlatformFee",
      "outputs": [],
      "stateMutability": "nonpayable",
      "type": "function"
    },
    {
      "inputs": [],
      "name": "pause",
      "outputs": [],
      "stateMutability": "nonpayable",
      "type": "function"
    },
    {
      "inputs": [],
      "name": "unpause",
      "outputs": [],
      "stateMutability": "nonpayable",
      "type": "function"
    },
    {
      "inputs": [
        {
          "internalType": "uint256",
          "name": "_id",
          "type": "uint256"
        }
      ],
      "name": "getAuditTrail",
      "outputs": [
        {
          "components": [
            {
              "internalType": "address",
              "name": "user",
              "type": "address"
            },
            {
              "internalType": "string",
              "name": "action",
              "type": "string"
            },
            {
              "internalType": "uint256",
              "name": "timestamp",
              "type": "uint256"
            },
            {
              "internalType": "string",
              "name": "details",
              "type": "string"
            }
          ],
          "internalType": "struct HealthDataMarketplace.AuditEntry[]",
          "name": "",
          "type": "tuple[]"
        }
      ],
      "stateMutability": "view",
      "type": "function"
    },
    {
      "inputs": [
        {
          "internalType": "uint256",
          "name": "_id",
          "type": "uint256"
        },
        {
          "internalType": "address",
          "name": "_user",
          "type": "address"
        }
      ],
      "name": "checkAccess",
      "outputs": [
        {
          "internalType": "bool",
          "name": "hasAccess",
          "type": "bool"
        },
        {
          "internalType": "uint256",
          "name": "expirationTime",
          "type": "uint256"
        },
        {
          "internalType": "string",
          "name": "purpose",
          "type": "string"
        },
        {
          "internalType": "bool",
          "name": "isEmergencyAccess",
          "type": "bool"
        }
      ],
      "stateMutability": "view",
      "type": "function"
    }
  ],
  "bytecode": "0x60806040523480156200001157600080fd5b5060016000819055805460ff191690556200002c336200009c565b62000039600033620000ee565b620000657fa49807205ce4d355092ef5a8a18f56e8913cf4a201fbe287825b095693c2177533620000ee565b620000917f0ce23c3e399818cfee81a7ab0880f714e53d7672b08df0fa62f2843416e1ea0933620000ee565b60fa600855620001a2565b600380546001600160a01b038381166001600160a01b0319831681179093556040519116919082907f8be0079c531659141344cd1fd0a4f28419497f9722a3daafe3b4186f6b6457e090600090a35050565b620000fa8282620000fe565b5050565b60008281526002602090815260408083206001600160a01b038516845290915290205460ff16620000fa5760008281526002602090815260408083206001600160a01b03851684529091529020805460ff191660011790556200015e3390565b6001600160a01b0316816001600160a01b0316837f2f8788117e7eff1d82e926ec794901d17c78024a50270940304540a733656f0d60405160405180910390a45050565b612f6780620001b26000396000f3fe6080604052600436106101e35760003560e01c80638456cb5911610102578063bc063e1a11610095578063d547741f11610064578063d547741f14610599578063d5cfe48e146105b9578063e7705db6146105d9578063f2fde38b1461060d57600080fd5b8063bc063e1a1461050e578063c231fa4614610524578063cbbdce4314610551578063d13c87031461056957600080fd5b8063a217fddf116100d1578063a217fddf14610472578063a87430ba14610487578063aa0b5988146104b9578063b87b7625146104d957600080fd5b80638456cb59146103fe57806388009758146104135780638da5cb5b1461042a57806391d148541461045257600080fd5b806331b77cfd1161017a5780635c975abb116101495780635c975abb1461038f578063715018a6146103a757806375b238fc146103bc578063832f1ce5146103de57600080fd5b806331b77cfd1461032757806336568abe1461033a5780633f4ba83a1461035a57806346b41bb01461036f57600080fd5b8063248a9ca3116101b6578063248a9ca31461027f57806324c20a34146102bd57806326232a2e146102f15780632f2ff15d1461030757600080fd5b806301ffc9a7146101e8578063071d06461461021d57806316a0042c1461023f5780631d2e4afd1461025f575b600080fd5b3480156101f457600080fd5b506102086102033660046126f7565b61062d565b60405190151581526020015b60405180910390f35b34801561022957600080fd5b5061023d6102383660046127d9565b610664565b005b34801561024b57600080fd5b5061023d61025a366004612861565b61090a565b34801561026b57600080fd5b5061023d61027a36600461287a565b610a70565b34801561028b57600080fd5b506102af61029a366004612861565b60009081526002602052604090206001015490565b604051908152602001610214565b3480156102c957600080fd5b506102af7f18d9ff454de989bd126b06bd404b47ede75f9e65543e94e8d212f89d7dcbb87c81565b3480156102fd57600080fd5b506102af60085481565b34801561031357600080fd5b5061023d6103223660046128f5565b610d7c565b61023d610335366004612921565b610da1565b34801561034657600080fd5b5061023d6103553660046128f5565b61126e565b34801561036657600080fd5b5061023d6112e8565b34801561037b57600080fd5b5061023d61038a366004612921565b61136a565b34801561039b57600080fd5b5060015460ff16610208565b3480156103b357600080fd5b5061023d6114c6565b3480156103c857600080fd5b506102af600080516020612f1283398151915281565b3480156103ea57600080fd5b5061023d6103f936600461295e565b6114da565b34801561040a57600080fd5b5061023d611650565b34801561041f57600080fd5b506102af62ed4e0081565b34801561043657600080fd5b506003546040516001600160a01b039091168152602001610214565b34801561045e57600080fd5b5061020861046d3660046128f5565b6116cb565b34801561047e57600080fd5b506102af600081565b34801561049357600080fd5b506104a76104a2366004612981565b6116f6565b604051610214969594939291906129ec565b3480156104c557600080fd5b5061023d6104d4366004612861565b611844565b3480156104e557600080fd5b506104f96104f4366004612861565b611900565b60405161021499989796959493929190612a3a565b34801561051a57600080fd5b506102af6103e881565b34801561053057600080fd5b5061054461053f366004612861565b611a6f565b6040516102149190612aaf565b34801561055d57600080fd5b506102af6301e1338081565b34801561057557600080fd5b506105896105843660046128f5565b611c91565b6040516102149493929190612b56565b3480156105a557600080fd5b5061023d6105b43660046128f5565b611db4565b3480156105c557600080fd5b5061023d6105d4366004612b8a565b611dd9565b3480156105e557600080fd5b506102af7f0ce23c3e399818cfee81a7ab0880f714e53d7672b08df0fa62f2843416e1ea0981565b34801561061957600080fd5b5061023d610628366004612981565b611f4a565b60006001600160e01b03198216637965db0b60e01b148061065e57506301ffc9a760e01b6001600160e01b03198316145b92915050565b3360009081526005602052604090205460ff166106be5760405162461bcd60e51b8152602060048201526013602482015272155cd95c881b9bdd081c9959da5cdd195c9959606a1b60448201526064015b60405180910390fd5b6106c6611fc0565b600085511161070c5760405162461bcd60e51b815260206004820152601260248201527111185d18481a185cda081c995c5d5a5c995960721b60448201526064016106b5565b6000841161075c5760405162461bcd60e51b815260206004820152601c60248201527f5072696365206d7573742062652067726561746572207468616e20300000000060448201526064016106b5565b62ed4e008210156107af5760405162461bcd60e51b815260206004820152601a60248201527f526574656e74696f6e20706572696f6420746f6f2073686f727400000000000060448201526064016106b5565b6107bd600780546001019055565b60006107c860075490565b600081815260046020526040902080546001600160a01b0319163317815560018101879055909150600281016107fe8882612c62565b5060038101805460ff191660011790556004810161081c8682612c62565b50426005828101919091556006820185905560078201805460ff19168515151790553360009081526020919091526040812060030180549161085d83612d38565b9190505550336001600160a01b0316827f52f2445906662520b50b0acef778dfcd58212f2cbb9a7d61a4d5e3a4135752208760405161089c9190612d51565b60405180910390a361090182336040518060400160405280600b81526020016a1110551057d31254d5115160aa1b8152506040518060400160405280601681526020017513995dc81a19585b1d1a0819185d18481b1a5cdd195960521b815250612006565b50505050505050565b8060008111801561091d57506007548111155b6109395760405162461bcd60e51b81526004016106b590612d64565b6000828152600460209081526040808320338452600981019092529091205460ff1661099e5760405162461bcd60e51b81526020600482015260146024820152734e6f20636f6e73656e7420746f207265766f6b6560601b60448201526064016106b5565b3360009081526009820160205260408120805460ff1916815560018101829055906109cc60028301826126a9565b506000600391909101819055604051339185917fbdf496d41407769ff71ececae6537542760506406fb62a651e7ac685c637bd839190a3610a6b83336040518060400160405280600f81526020016e10d3d394d1539517d4915593d2d151608a1b8152506040518060400160405280601781526020017f436f6e73656e74207265766f6b65642062792075736572000000000000000000815250612006565b505050565b3360009081526005602052604090205460ff1615610ac55760405162461bcd60e51b8152602060048201526012602482015271105b1c9958591e481c9959da5cdd195c995960721b60448201526064016106b5565b604051661c185d1a595b9d60ca1b60208201526027016040516020818303038152906040528051906020012082604051602001610b029190612d8d565b604051602081830303815290604052805190602001201480610b75575060405167383937bb34b232b960c11b60208201526028016040516020818303038152906040528051906020012082604051602001610b5d9190612d8d565b60405160208183030381529060405280519060200120145b80610bd35750604051693932b9b2b0b931b432b960b11b6020820152602a016040516020818303038152906040528051906020012082604051602001610bbb9190612d8d565b60405160208183030381529060405280519060200120145b610c0e5760405162461bcd60e51b815260206004820152600c60248201526b496e76616c696420726f6c6560a01b60448201526064016106b5565b336000908152600560205260409020805460ff19166001908117825501610c358382612c62565b50336000908152600560205260409020600201610c528282612c62565b5060405167383937bb34b232b960c11b60208201526028016040516020818303038152906040528051906020012082604051602001610c919190612d8d565b6040516020818303038152906040528051906020012003610cd657610cd67f18d9ff454de989bd126b06bd404b47ede75f9e65543e94e8d212f89d7dcbb87c336120ec565b336001600160a01b03167f48cac28ad4dc618e15f4c2dd5e97751182f166de97b25618318b2112aa951a2f83604051610d0f9190612d51565b60405180910390a2610d786000336040518060400160405280600f81526020016e1554d15497d49151d254d511549151608a1b815250604051806040016040528060158152602001742732bb903ab9b2b9103932b3b4b9ba3930ba34b7b760591b815250612006565b5050565b600082815260026020526040902060010154610d9781612172565b610a6b83836120ec565b3360009081526005602052604090205460ff16610df65760405162461bcd60e51b8152602060048201526013602482015272155cd95c881b9bdd081c9959da5cdd195c9959606a1b60448201526064016106b5565b81600081118015610e0957506007548111155b610e255760405162461bcd60e51b81526004016106b590612d64565b6000838152600460205260409020600781015484919060ff168015610e54575080546001600160a01b03163314155b15610ed25733600090815260098201602052604090205460ff168015610e8d575033600090815260098201602052604090206001015442105b610ed25760405162461bcd60e51b815260206004820152601660248201527515985b1a590818dbdb9cd95b9d081c995c5d5a5c995960521b60448201526064016106b5565b610eda611fc0565b610ee261217c565b6000858152600460205260409020600381015460ff16610f445760405162461bcd60e51b815260206004820152601f60248201527f44617461206e6f7420617661696c61626c6520666f722070757263686173650060448201526064016106b5565b80546001600160a01b03163303610fa95760405162461bcd60e51b8152602060048201526024808201527f4f776e65722063616e6e6f74207075726368617365207468656972206f776e206044820152636461746160e01b60648201526084016106b5565b8060010154341015610ff45760405162461bcd60e51b8152602060048201526014602482015273125b9cdd59999a58da595b9d081c185e5b595b9d60621b60448201526064016106b5565b6000612710600854836001015461100b9190612da9565b6110159190612dc0565b905060008183600101546110299190612de2565b83546040519192506000916001600160a01b039091169083908381818185875af1925050503d806000811461107a576040519150601f19603f3d011682016040523d82523d6000602084013e61107f565b606091505b50509050806110d05760405162461bcd60e51b815260206004820152601860248201527f5061796d656e7420746f2073656c6c6572206661696c6564000000000000000060448201526064016106b5565b60006110e06301e1338042612df5565b90506110ee8a338b846121d5565b33600090815260056020526040812060040180549161110c83612d38565b9091555050845460018601546040519081526001600160a01b039091169033908c907fd43f5f34801f2e70be3032e4807e0460394b94b06f8ec19842703ce34dc1874b9060200160405180910390a46111ac8a336040518060400160405280600e81526020016d1110551057d4155490d21054d15160921b8152508c6040516020016111989190612e08565b604051602081830303815290604052612006565b84600101543411156112585760008560010154346111ca9190612de2565b604051909150600090339083908381818185875af1925050503d806000811461120f576040519150601f19603f3d011682016040523d82523d6000602084013e611214565b606091505b50509050806112555760405162461bcd60e51b815260206004820152600d60248201526c1499599d5b990819985a5b1959609a1b60448201526064016106b5565b50505b50505050506112676001600055565b5050505050565b6001600160a01b03811633146112de5760405162461bcd60e51b815260206004820152602f60248201527f416363657373436f6e74726f6c3a2063616e206f6e6c792072656e6f756e636560448201526e103937b632b9903337b91039b2b63360891b60648201526084016106b5565b610d7882826122b2565b600080516020612f1283398151915261130081612172565b611308612319565b6113676000336040518060400160405280601181526020017010d3d395149050d517d55394105554d151607a1b8152506040518060400160405280601181526020017010dbdb9d1c9858dd081d5b9c185d5cd959607a1b815250612006565b50565b8160008111801561137d57506007548111155b6113995760405162461bcd60e51b81526004016106b590612d64565b6113c37f18d9ff454de989bd126b06bd404b47ede75f9e65543e94e8d212f89d7dcbb87c336116cb565b6114005760405162461bcd60e51b815260206004820152600e60248201526d2737ba103090383937bb34b232b960911b60448201526064016106b5565b60008381526004602052604090206114268433856114214262015180612df5565b6121d5565b33600081815260088301602052604090819020600301805460ff191660011790555185907f640eb32c0f997510add97611f65befe4278168eaf7908c8b193bf717cc5cdc9390611477908790612d51565b60405180910390a36114c084336040518060400160405280601881526020017f454d455247454e43595f4143434553535f4752414e544544000000000000000081525086612006565b50505050565b6114ce61236b565b6114d860006123c5565b565b816000811180156114ed57506007548111155b6115095760405162461bcd60e51b81526004016106b590612d64565b6115337f0ce23c3e399818cfee81a7ab0880f714e53d7672b08df0fa62f2843416e1ea09336116cb565b6115705760405162461bcd60e51b815260206004820152600e60248201526d2737ba1030903b32b934b334b2b960911b60448201526064016106b5565b6000838152600460205260409081902060030180548415156101000261ff00199091161790555183907ff19148bda0275c7e02551aef3146ba849cd2b861d970501ee44a80ccdf87535e906115ca90851515815260200190565b60405180910390a2610a6b83336040518060400160405280600d81526020016c1110551057d591549251925151609a1b8152508561162a576040518060400160405280600a815260200169155b9d995c9a599a595960b21b815250612006565b6040518060400160405280600881526020016715995c9a599a595960c21b815250612006565b600080516020612f1283398151915261166881612172565b611670612417565b6113676000336040518060400160405280600f81526020016e10d3d395149050d517d4105554d151608a1b8152506040518060400160405280600f81526020016e10dbdb9d1c9858dd081c185d5cd959608a1b815250612006565b60009182526002602090815260408084206001600160a01b0393909316845291905290205460ff1690565b6005602052600090815260409020805460018201805460ff909216929161171c90612bda565b80601f016020809104026020016040519081016040528092919081815260200182805461174890612bda565b80156117955780601f1061176a57610100808354040283529160200191611795565b820191906000526020600020905b81548152906001019060200180831161177857829003601f168201915b5050505050908060020180546117aa90612bda565b80601f01602080910402602001604051908101604052809291908181526020018280546117d690612bda565b80156118235780601f106117f857610100808354040283529160200191611823565b820191906000526020600020905b81548152906001019060200180831161180657829003601f168201915b50505050600383015460048401546005909401549293909290915060ff1686565b600080516020612f1283398151915261185c81612172565b6103e882111561189d5760405162461bcd60e51b815260206004820152600c60248201526b08ccaca40e8dede40d0d2ced60a31b60448201526064016106b5565b81600881905550610d786000336040518060400160405280600b81526020016a11915157d554111055115160aa1b81525060405180604001604052806014815260200173141b185d199bdc9b48199959481d5c19185d195960621b815250612006565b6004602052600090815260409020805460018201546002830180546001600160a01b0390931693919261193290612bda565b80601f016020809104026020016040519081016040528092919081815260200182805461195e90612bda565b80156119ab5780601f10611980576101008083540402835291602001916119ab565b820191906000526020600020905b81548152906001019060200180831161198e57829003601f168201915b505050506003830154600484018054939460ff80841695610100909404169350916119d590612bda565b80601f0160208091040260200160405190810160405280929190818152602001828054611a0190612bda565b8015611a4e5780601f10611a2357610100808354040283529160200191611a4e565b820191906000526020600020905b815481529060010190602001808311611a3157829003601f168201915b50505050600583015460068401546007909401549293909290915060ff1689565b6000818152600460205260409020546060906001600160a01b0316331480611aaa5750611aaa600080516020612f12833981519152336116cb565b611ae75760405162461bcd60e51b815260206004820152600e60248201526d139bdd08185d5d1a1bdc9a5e995960921b60448201526064016106b5565b600082815260066020908152604080832080548251818502810185019093528083529193909284015b82821015611c8657600084815260209081902060408051608081019091526004850290910180546001600160a01b031682526001810180549293919291840191611b5990612bda565b80601f0160208091040260200160405190810160405280929190818152602001828054611b8590612bda565b8015611bd25780601f10611ba757610100808354040283529160200191611bd2565b820191906000526020600020905b815481529060010190602001808311611bb557829003601f168201915b5050505050815260200160028201548152602001600382018054611bf590612bda565b80601f0160208091040260200160405190810160405280929190818152602001828054611c2190612bda565b8015611c6e5780601f10611c4357610100808354040283529160200191611c6e565b820191906000526020600020905b815481529060010190602001808311611c5157829003601f168201915b50505050508152505081526020019060010190611b10565b505050509050919050565b6000806060600085600081118015611cab57506007548111155b611cc75760405162461bcd60e51b81526004016106b590612d64565b60008781526004602090815260408083206001600160a01b038a1684526008019091529020805460ff168015611d005750428160010154115b60018201546003830154600284018054909160ff16908290611d2190612bda565b80601f0160208091040260200160405190810160405280929190818152602001828054611d4d90612bda565b8015611d9a5780601f10611d6f57610100808354040283529160200191611d9a565b820191906000526020600020905b815481529060010190602001808311611d7d57829003601f168201915b505050505091509550955095509550505092959194509250565b600082815260026020526040902060010154611dcf81612172565b610a6b83836122b2565b82600081118015611dec57506007548111155b611e085760405162461bcd60e51b81526004016106b590612d64565b6301e13380821115611e505760405162461bcd60e51b81526020600482015260116024820152704475726174696f6e20746f6f206c6f6e6760781b60448201526064016106b5565b6000848152600460209081526040918290208251608081019093526001835291908101611e7d8542612df5565b81526020808201879052426040928301523360009081526009850182528290208351815460ff1916901515178155908301516001820155908201516002820190611ec79082612c62565b5060608201518160030155905050336001600160a01b0316857f936fac09e8772d698b06caba8f39a8dc2455bf38f3520062e72a8c93eab4530486604051611f0f9190612d51565b60405180910390a361126785336040518060400160405280600f81526020016e10d3d394d1539517d1d49053951151608a1b81525087612006565b611f5261236b565b6001600160a01b038116611fb75760405162461bcd60e51b815260206004820152602660248201527f4f776e61626c653a206e6577206f776e657220697320746865207a65726f206160448201526564647265737360d01b60648201526084016106b5565b611367816123c5565b60015460ff16156114d85760405162461bcd60e51b815260206004820152601060248201526f14185d5cd8589b194e881c185d5cd95960821b60448201526064016106b5565b600084815260066020908152604080832081516080810183526001600160a01b03888116825281850188815242948301949094526060820187905282546001808201855593875294909520815160049095020180546001600160a01b031916949095169390931784559051919291908201906120829082612c62565b5060408201516002820155606082015160038201906120a19082612c62565b505050826001600160a01b0316847f0f6abb8e17856a8409ec99e31828052e4e9110997f23a184aaea624ff40bfc56846040516120de9190612d51565b60405180910390a350505050565b6120f682826116cb565b610d785760008281526002602090815260408083206001600160a01b03851684529091529020805460ff1916600117905561212e3390565b6001600160a01b0316816001600160a01b0316837f2f8788117e7eff1d82e926ec794901d17c78024a50270940304540a733656f0d60405160405180910390a45050565b6113678133612452565b6002600054036121ce5760405162461bcd60e51b815260206004820152601f60248201527f5265656e7472616e637947756172643a207265656e7472616e742063616c6c0060448201526064016106b5565b6002600055565b600084815260046020908152604080832081516080810183526001808252818501878152828501898152606084018890526001600160a01b038b16885260088501909652939095208151815460ff1916901515178155925194830194909455915191929160028201906122489082612c62565b50606091909101516003909101805460ff19169115159190911790556040516001600160a01b0385169086907f669423de70823767a3864eebeb9dc566b37896633f597de1650336062ffe9a0e906122a39087908790612e4d565b60405180910390a35050505050565b6122bc82826116cb565b15610d785760008281526002602090815260408083206001600160a01b0385168085529252808320805460ff1916905551339285917ff6391f5c32d9c69d2a47ea670b442974b53935d1edc7fd64eb21e047a839171b9190a45050565b6123216124ab565b6001805460ff191690557f5db9ee0a495bf2e6ff9c91a7834c1ba4fdd244a5e8aa4e537bd38aeae4b073aa335b6040516001600160a01b03909116815260200160405180910390a1565b6003546001600160a01b031633146114d85760405162461bcd60e51b815260206004820181905260248201527f4f776e61626c653a2063616c6c6572206973206e6f7420746865206f776e657260448201526064016106b5565b600380546001600160a01b038381166001600160a01b0319831681179093556040519116919082907f8be0079c531659141344cd1fd0a4f28419497f9722a3daafe3b4186f6b6457e090600090a35050565b61241f611fc0565b6001805460ff1916811790557f62e78cea01bee320cd4e420270b5ea74000d11b0c9f74754ebdbfc544b05a2583361234e565b61245c82826116cb565b610d7857612469816124f4565b612474836020612506565b604051602001612485929190612e6f565b60408051601f198184030181529082905262461bcd60e51b82526106b591600401612d51565b60015460ff166114d85760405162461bcd60e51b815260206004820152601460248201527314185d5cd8589b194e881b9bdd081c185d5cd95960621b60448201526064016106b5565b606061065e6001600160a01b03831660145b60606000612515836002612da9565b612520906002612df5565b67ffffffffffffffff81111561253857612538612721565b6040519080825280601f01601f191660200182016040528015612562576020820181803683370190505b509050600360fc1b8160008151811061257d5761257d612ee4565b60200101906001600160f81b031916908160001a905350600f60fb1b816001815181106125ac576125ac612ee4565b60200101906001600160f81b031916908160001a90535060006125d0846002612da9565b6125db906001612df5565b90505b6001811115612653576f181899199a1a9b1b9c1cb0b131b232b360811b85600f166010811061260f5761260f612ee4565b1a60f81b82828151811061262557612625612ee4565b60200101906001600160f81b031916908160001a90535060049490941c9361264c81612efa565b90506125de565b5083156126a25760405162461bcd60e51b815260206004820181905260248201527f537472696e67733a20686578206c656e67746820696e73756666696369656e7460448201526064016106b5565b9392505050565b5080546126b590612bda565b6000825580601f106126c5575050565b601f01602090049060005260206000209081019061136791905b808211156126f357600081556001016126df565b5090565b60006020828403121561270957600080fd5b81356001600160e01b0319811681146126a257600080fd5b634e487b7160e01b600052604160045260246000fd5b600082601f83011261274857600080fd5b813567ffffffffffffffff8082111561276357612763612721565b604051601f8301601f19908116603f0116810190828211818310171561278b5761278b612721565b816040528381528660208588010111156127a457600080fd5b836020870160208301376000602085830101528094505050505092915050565b803580151581146127d457600080fd5b919050565b600080600080600060a086880312156127f157600080fd5b853567ffffffffffffffff8082111561280957600080fd5b61281589838a01612737565b965060208801359550604088013591508082111561283257600080fd5b5061283f88828901612737565b93505060608601359150612855608087016127c4565b90509295509295909350565b60006020828403121561287357600080fd5b5035919050565b6000806040838503121561288d57600080fd5b823567ffffffffffffffff808211156128a557600080fd5b6128b186838701612737565b935060208501359150808211156128c757600080fd5b506128d485828601612737565b9150509250929050565b80356001600160a01b03811681146127d457600080fd5b6000806040838503121561290857600080fd5b82359150612918602084016128de565b90509250929050565b6000806040838503121561293457600080fd5b82359150602083013567ffffffffffffffff81111561295257600080fd5b6128d485828601612737565b6000806040838503121561297157600080fd5b82359150612918602084016127c4565b60006020828403121561299357600080fd5b6126a2826128de565b60005b838110156129b757818101518382015260200161299f565b50506000910152565b600081518084526129d881602086016020860161299c565b601f01601f19169290920160200192915050565b861515815260c060208201526000612a0760c08301886129c0565b8281036040840152612a1981886129c0565b606084019690965250506080810192909252151560a0909101529392505050565b6001600160a01b038a1681526020810189905261012060408201819052600090612a668382018b6129c0565b90508815156060840152871515608084015282810360a0840152612a8a81886129c0565b60c0840196909652505060e08101929092521515610100909101529695505050505050565b60006020808301818452808551808352604092508286019150828160051b87010184880160005b83811015612b4857888303603f19018552815180516001600160a01b0316845287810151608089860181905290612b0f828701826129c0565b915050878201518886015260608083015192508582038187015250612b3481836129c0565b968901969450505090860190600101612ad6565b509098975050505050505050565b8415158152836020820152608060408201526000612b7760808301856129c0565b9050821515606083015295945050505050565b600080600060608486031215612b9f57600080fd5b83359250602084013567ffffffffffffffff811115612bbd57600080fd5b612bc986828701612737565b925050604084013590509250925092565b600181811c90821680612bee57607f821691505b602082108103612c0e57634e487b7160e01b600052602260045260246000fd5b50919050565b601f821115610a6b57600081815260208120601f850160051c81016020861015612c3b5750805b601f850160051c820191505b81811015612c5a57828155600101612c47565b505050505050565b815167ffffffffffffffff811115612c7c57612c7c612721565b612c9081612c8a8454612bda565b84612c14565b602080601f831160018114612cc55760008415612cad5750858301515b600019600386901b1c1916600185901b178555612c5a565b600085815260208120601f198616915b82811015612cf457888601518255948401946001909101908401612cd5565b5085821015612d125787850151600019600388901b60f8161c191681555b5050505050600190811b01905550565b634e487b7160e01b600052601160045260246000fd5b600060018201612d4a57612d4a612d22565b5060010190565b6020815260006126a260208301846129c0565b6020808252600f908201526e125b9d985b1a590819185d18481251608a1b604082015260600190565b60008251612d9f81846020870161299c565b9190910192915050565b808202811582820484141761065e5761065e612d22565b600082612ddd57634e487b7160e01b600052601260045260246000fd5b500490565b8181038181111561065e5761065e612d22565b8082018082111561065e5761065e612d22565b7f4461746120707572636861736564207769746820707572706f73653a20000000815260008251612e4081601d85016020870161299c565b91909101601d0192915050565b604081526000612e6060408301856129c0565b90508260208301529392505050565b7f416363657373436f6e74726f6c3a206163636f756e7420000000000000000000815260008351612ea781601785016020880161299c565b7001034b99036b4b9b9b4b733903937b6329607d1b6017918401918201528351612ed881602884016020880161299c565b01602801949350505050565b634e487b7160e01b600052603260045260246000fd5b600081612f0957612f09612d22565b50600019019056fea49807205ce4d355092ef5a8a18f56e8913cf4a201fbe287825b095693c21775a264697066735822122090e8b5944e9ac5dc1cfa01a7963d21da73da40dd1f446e56db91cb24dbfaa22364736f6c63430008130033",
  "immutableReferences": {},
  "source": "// SPDX-License-Identifier: MIT\npragma solidity ^0.8.19;\n\nimport \"@openzeppelin/contracts/security/ReentrancyGuard.sol\";\nimport \"@openzeppelin/contracts/security/Pausable.sol\";\nimport \"@openzeppelin/contracts/access/AccessControl.sol\";\nimport \"@openzeppelin/contracts/access/Ownable.sol\";\nimport \"@openzeppelin/contracts/utils/Counters.sol\";\n\ncontract HealthDataMarketplace is\n    ReentrancyGuard,\n    Pausable,\n    AccessControl,\n    Ownable\n{\n    using Counters for Counters.Counter;\n\n    // Roles\n    bytes32 public constant ADMIN_ROLE = keccak256(\"ADMIN_ROLE\");\n    bytes32 public constant PROVIDER_ROLE = keccak256(\"PROVIDER_ROLE\");\n    bytes32 public constant VERIFIER_ROLE = keccak256(\"VERIFIER_ROLE\");\n\n    struct HealthData {\n        address payable owner;\n        uint256 price;\n        string encryptedDataHash; // IPFS hash of encrypted data\n        // Symmetric encryption keys are NEVER stored on-chain.\n        // The key is held by the server in MongoDB, wrapped with a KEK,\n        // and released only to authorized callers via /api/data/keys/:cid.\n        // See SECURITY.md.\n        bool isAvailable;\n        bool isVerified;\n        string category;\n        uint256 uploadTime;\n        uint256 retentionPeriod; // Data retention period in seconds\n        bool consentRequired; // Whether explicit consent is required\n        mapping(address => AccessGrant) accessGrants;\n        mapping(address => Consent) consents;\n    }\n\n    struct AccessGrant {\n        bool hasAccess;\n        uint256 expirationTime;\n        string purpose;\n        bool isEmergencyAccess;\n    }\n\n    struct Consent {\n        bool hasConsented;\n        uint256 expirationTime;\n        string purpose;\n        uint256 timestamp;\n    }\n\n    struct User {\n        bool isRegistered;\n        string role; // \"patient\", \"provider\", \"researcher\"\n        string encryptedDetails; // Encrypted user details\n        uint256 dataCount;\n        uint256 purchaseCount;\n        bool hipaaVerified; // HIPAA verification status\n        mapping(address => bool) authorizedProviders;\n    }\n\n    // Audit trail structure\n    struct AuditEntry {\n        address user;\n        string action;\n        uint256 timestamp;\n        string details;\n    }\n\n    // State variables\n    mapping(uint256 => HealthData) public healthData;\n    mapping(address => User) public users;\n    mapping(uint256 => AuditEntry[]) private dataAuditTrail;\n    Counters.Counter private _dataIdCounter;\n\n    uint256 public platformFee;\n    uint256 public constant MAX_FEE = 1000; // 10%\n    uint256 public constant MIN_RETENTION_PERIOD = 180 days; // 6 months minimum\n    uint256 public constant MAX_ACCESS_DURATION = 365 days; // 1 year maximum\n\n    // Events\n    event DataListed(\n        uint256 indexed id,\n        address indexed owner,\n        string category\n    );\n    event DataPurchased(\n        uint256 indexed id,\n        address indexed buyer,\n        address indexed seller,\n        uint256 price\n    );\n    event DataVerified(uint256 indexed id, bool verified);\n    event UserRegistered(address indexed user, string role);\n    event ConsentGranted(\n        uint256 indexed id,\n        address indexed user,\n        string purpose\n    );\n    event ConsentRevoked(uint256 indexed id, address indexed user);\n    event AccessGranted(\n        uint256 indexed id,\n        address indexed user,\n        string purpose,\n        uint256 expirationTime\n    );\n    event AccessRevoked(uint256 indexed id, address indexed user);\n    event EmergencyAccessGranted(\n        uint256 indexed id,\n        address indexed provider,\n        string reason\n    );\n    event AuditEntryAdded(\n        uint256 indexed id,\n        address indexed user,\n        string action\n    );\n    event DataRetentionUpdated(uint256 indexed id, uint256 newPeriod);\n\n    modifier onlyRegistered() {\n        require(users[msg.sender].isRegistered, \"User not registered\");\n        _;\n    }\n\n    modifier validData(uint256 _id) {\n        require(_id > 0 && _id <= _dataIdCounter.current(), \"Invalid data ID\");\n        _;\n    }\n\n    modifier requiresConsent(uint256 _id) {\n        HealthData storage data = healthData[_id];\n        if (data.consentRequired && msg.sender != data.owner) {\n            require(\n                data.consents[msg.sender].hasConsented &&\n                    data.consents[msg.sender].expirationTime > block.timestamp,\n                \"Valid consent required\"\n            );\n        }\n        _;\n    }\n\n    constructor() {\n        _setupRole(DEFAULT_ADMIN_ROLE, msg.sender);\n        _setupRole(ADMIN_ROLE, msg.sender);\n        _setupRole(VERIFIER_ROLE, msg.sender);\n        platformFee = 250; // 2.5%\n    }\n\n    function registerUser(\n        string memory _role,\n        string memory _encryptedDetails\n    ) external {\n        require(!users[msg.sender].isRegistered, \"Already registered\");\n        require(\n            keccak256(abi.encodePacked(_role)) ==\n                keccak256(abi.encodePacked(\"patient\")) ||\n                keccak256(abi.encodePacked(_role)) ==\n                keccak256(abi.encodePacked(\"provider\")) ||\n                keccak256(abi.encodePacked(_role)) ==\n                keccak256(abi.encodePacked(\"researcher\")),\n            \"Invalid role\"\n        );\n\n        users[msg.sender].isRegistered = true;\n        users[msg.sender].role = _role;\n        users[msg.sender].encryptedDetails = _encryptedDetails;\n\n        if (\n            keccak256(abi.encodePacked(_role)) ==\n            keccak256(abi.encodePacked(\"provider\"))\n        ) {\n            _grantRole(PROVIDER_ROLE, msg.sender);\n        }\n\n        emit UserRegistered(msg.sender, _role);\n        _addAuditEntry(\n            0,\n            msg.sender,\n            \"USER_REGISTERED\",\n            \"New user registration\"\n        );\n    }\n\n    function listHealthData(\n        string memory _encryptedDataHash,\n        uint256 _price,\n        string memory _category,\n        uint256 _retentionPeriod,\n        bool _consentRequired\n    ) external onlyRegistered whenNotPaused {\n        require(bytes(_encryptedDataHash).length > 0, \"Data hash required\");\n        require(_price > 0, \"Price must be greater than 0\");\n        require(\n            _retentionPeriod >= MIN_RETENTION_PERIOD,\n            \"Retention period too short\"\n        );\n\n        _dataIdCounter.increment();\n        uint256 newDataId = _dataIdCounter.current();\n\n        HealthData storage newData = healthData[newDataId];\n        newData.owner = payable(msg.sender);\n        newData.price = _price;\n        newData.encryptedDataHash = _encryptedDataHash;\n        newData.isAvailable = true;\n        newData.category = _category;\n        newData.uploadTime = block.timestamp;\n        newData.retentionPeriod = _retentionPeriod;\n        newData.consentRequired = _consentRequired;\n\n        users[msg.sender].dataCount++;\n\n        emit DataListed(newDataId, msg.sender, _category);\n        _addAuditEntry(\n            newDataId,\n            msg.sender,\n            \"DATA_LISTED\",\n            \"New health data listed\"\n        );\n    }\n\n    // This should replace the purchaseData function in your contract\n\n    function purchaseData(\n        uint256 _id,\n        string memory _purpose\n    )\n        external\n        payable\n        onlyRegistered\n        validData(_id)\n        requiresConsent(_id)\n        whenNotPaused\n        nonReentrant\n    {\n        HealthData storage data = healthData[_id];\n\n        // Check if data is available for purchase\n        require(data.isAvailable, \"Data not available for purchase\");\n\n        // Check that the buyer is not the owner\n        require(\n            msg.sender != data.owner,\n            \"Owner cannot purchase their own data\"\n        );\n\n        // Verify payment amount matches the price\n        require(msg.value >= data.price, \"Insufficient payment\");\n\n        // Calculate platform fee\n        uint256 fee = (data.price * platformFee) / 10000;\n        uint256 sellerAmount = data.price - fee;\n\n        // Transfer payment to the seller (minus platform fee)\n        (bool success, ) = data.owner.call{value: sellerAmount}(\"\");\n        require(success, \"Payment to seller failed\");\n\n        // Grant access to the buyer\n        uint256 accessExpiration = block.timestamp + MAX_ACCESS_DURATION;\n        _grantAccess(_id, msg.sender, _purpose, accessExpiration);\n\n        // Update user statistics\n        users[msg.sender].purchaseCount++;\n\n        // Emit events\n        emit DataPurchased(_id, msg.sender, data.owner, data.price);\n\n        // Add audit entry\n        _addAuditEntry(\n            _id,\n            msg.sender,\n            \"DATA_PURCHASED\",\n            string(abi.encodePacked(\"Data purchased with purpose: \", _purpose))\n        );\n\n        // Refund excess payment if any\n        if (msg.value > data.price) {\n            uint256 refundAmount = msg.value - data.price;\n            (bool refundSuccess, ) = msg.sender.call{value: refundAmount}(\"\");\n            require(refundSuccess, \"Refund failed\");\n        }\n    }\n    function _grantAccess(\n        uint256 _id,\n        address _user,\n        string memory _purpose,\n        uint256 _expirationTime\n    ) private {\n        HealthData storage data = healthData[_id];\n        data.accessGrants[_user] = AccessGrant({\n            hasAccess: true,\n            expirationTime: _expirationTime,\n            purpose: _purpose,\n            isEmergencyAccess: false\n        });\n\n        emit AccessGranted(_id, _user, _purpose, _expirationTime);\n    }\n\n    function grantConsent(\n        uint256 _id,\n        string memory _purpose,\n        uint256 _duration\n    ) external validData(_id) {\n        require(_duration <= MAX_ACCESS_DURATION, \"Duration too long\");\n\n        HealthData storage data = healthData[_id];\n        data.consents[msg.sender] = Consent({\n            hasConsented: true,\n            expirationTime: block.timestamp + _duration,\n            purpose: _purpose,\n            timestamp: block.timestamp\n        });\n\n        emit ConsentGranted(_id, msg.sender, _purpose);\n        _addAuditEntry(_id, msg.sender, \"CONSENT_GRANTED\", _purpose);\n    }\n\n    function revokeConsent(uint256 _id) external validData(_id) {\n        HealthData storage data = healthData[_id];\n        require(data.consents[msg.sender].hasConsented, \"No consent to revoke\");\n\n        delete data.consents[msg.sender];\n        emit ConsentRevoked(_id, msg.sender);\n        _addAuditEntry(\n            _id,\n            msg.sender,\n            \"CONSENT_REVOKED\",\n            \"Consent revoked by user\"\n        );\n    }\n\n    function requestEmergencyAccess(\n        uint256 _id,\n        string memory _reason\n    ) external validData(_id) {\n        require(hasRole(PROVIDER_ROLE, msg.sender), \"Not a provider\");\n\n        HealthData storage data = healthData[_id];\n        _grantAccess(_id, msg.sender, _reason, block.timestamp + 24 hours);\n        data.accessGrants[msg.sender].isEmergencyAccess = true;\n\n        emit EmergencyAccessGranted(_id, msg.sender, _reason);\n        _addAuditEntry(_id, msg.sender, \"EMERGENCY_ACCESS_GRANTED\", _reason);\n    }\n\n    function verifyData(uint256 _id, bool _verified) external validData(_id) {\n        require(hasRole(VERIFIER_ROLE, msg.sender), \"Not a verifier\");\n        healthData[_id].isVerified = _verified;\n        emit DataVerified(_id, _verified);\n        _addAuditEntry(\n            _id,\n            msg.sender,\n            \"DATA_VERIFIED\",\n            _verified ? \"Verified\" : \"Unverified\"\n        );\n    }\n\n    function _addAuditEntry(\n        uint256 _id,\n        address _user,\n        string memory _action,\n        string memory _details\n    ) private {\n        dataAuditTrail[_id].push(\n            AuditEntry({\n                user: _user,\n                action: _action,\n                timestamp: block.timestamp,\n                details: _details\n            })\n        );\n\n        emit AuditEntryAdded(_id, _user, _action);\n    }\n\n    // Admin functions\n    function updatePlatformFee(uint256 _newFee) external onlyRole(ADMIN_ROLE) {\n        require(_newFee <= MAX_FEE, \"Fee too high\");\n        platformFee = _newFee;\n        _addAuditEntry(0, msg.sender, \"FEE_UPDATED\", \"Platform fee updated\");\n    }\n\n    function pause() external onlyRole(ADMIN_ROLE) {\n        _pause();\n        _addAuditEntry(0, msg.sender, \"CONTRACT_PAUSED\", \"Contract paused\");\n    }\n\n    function unpause() external onlyRole(ADMIN_ROLE) {\n        _unpause();\n        _addAuditEntry(0, msg.sender, \"CONTRACT_UNPAUSED\", \"Contract unpaused\");\n    }\n\n    // View functions\n    function getAuditTrail(\n        uint256 _id\n    ) external view returns (AuditEntry[] memory) {\n        require(\n            msg.sender == healthData[_id].owner ||\n                hasRole(ADMIN_ROLE, msg.sender),\n            \"Not authorized\"\n        );\n        return dataAuditTrail[_id];\n    }\n\n    function checkAccess(\n        uint256 _id,\n        address _user\n    )\n        external\n        view\n        validData(_id)\n        returns (\n            bool hasAccess,\n            uint256 expirationTime,\n            string memory purpose,\n            bool isEmergencyAccess\n        )\n    {\n        AccessGrant storage grant = healthData[_id].accessGrants[_user];\n        return (\n            grant.hasAccess && grant.expirationTime > block.timestamp,\n            grant.expirationTime,\n            grant.purpose,\n            grant.isEmergencyAccess\n        );\n    }\n}\n",
  "sourcePath": "/home/erikwilliams/dev/Healthmint-main/contracts/HealthDataMarketplaceContract.sol",
  "compiler": {
    "name": "solc",
    "version": "0.8.19+commit.7dd6d404.Emscripten.clang"
  },
  "schemaVersion": "3.4.16",
  "updatedAt": "2026-05-30T05:11:14.596Z",
  "devdoc": {
    "events": {
      "Paused(address)": {
        "details": "Emitted when the pause is triggered by `account`."
      },
      "RoleAdminChanged(bytes32,bytes32,bytes32)": {
        "details": "Emitted when `newAdminRole` is set as ``role``'s admin role, replacing `previousAdminRole` `DEFAULT_ADMIN_ROLE` is the starting admin for all roles, despite {RoleAdminChanged} not being emitted signaling this. _Available since v3.1._"
      },
      "RoleGranted(bytes32,address,address)": {
        "details": "Emitted when `account` is granted `role`. `sender` is the account that originated the contract call, an admin role bearer except when using {AccessControl-_setupRole}."
      },
      "RoleRevoked(bytes32,address,address)": {
        "details": "Emitted when `account` is revoked `role`. `sender` is the account that originated the contract call:   - if using `revokeRole`, it is the admin role bearer   - if using `renounceRole`, it is the role bearer (i.e. `account`)"
      },
      "Unpaused(address)": {
        "details": "Emitted when the pause is lifted by `account`."
      }
    },
    "kind": "dev",
    "methods": {
      "getRoleAdmin(bytes32)": {
        "details": "Returns the admin role that controls `role`. See {grantRole} and {revokeRole}. To change a role's admin, use {_setRoleAdmin}."
      },
      "grantRole(bytes32,address)": {
        "details": "Grants `role` to `account`. If `account` had not been already granted `role`, emits a {RoleGranted} event. Requirements: - the caller must have ``role``'s admin role. May emit a {RoleGranted} event."
      },
      "hasRole(bytes32,address)": {
        "details": "Returns `true` if `account` has been granted `role`."
      },
      "owner()": {
        "details": "Returns the address of the current owner."
      },
      "paused()": {
        "details": "Returns true if the contract is paused, and false otherwise."
      },
      "renounceOwnership()": {
        "details": "Leaves the contract without owner. It will not be possible to call `onlyOwner` functions. Can only be called by the current owner. NOTE: Renouncing ownership will leave the contract without an owner, thereby disabling any functionality that is only available to the owner."
      },
      "renounceRole(bytes32,address)": {
        "details": "Revokes `role` from the calling account. Roles are often managed via {grantRole} and {revokeRole}: this function's purpose is to provide a mechanism for accounts to lose their privileges if they are compromised (such as when a trusted device is misplaced). If the calling account had been revoked `role`, emits a {RoleRevoked} event. Requirements: - the caller must be `account`. May emit a {RoleRevoked} event."
      },
      "revokeRole(bytes32,address)": {
        "details": "Revokes `role` from `account`. If `account` had been granted `role`, emits a {RoleRevoked} event. Requirements: - the caller must have ``role``'s admin role. May emit a {RoleRevoked} event."
      },
      "supportsInterface(bytes4)": {
        "details": "See {IERC165-supportsInterface}."
      },
      "transferOwnership(address)": {
        "details": "Transfers ownership of the contract to a new account (`newOwner`). Can only be called by the current owner."
      }
    },
    "version": 1
  },
  "userdoc": {
    "kind": "user",
    "methods": {},
    "version": 1
  }
}